:100000000C9499000C94C1000C94C1000C94C10094
:100010000C94C1000C94C1000C94C1000C94C1005C
:100020000C94C1000C94C1000C94C1000C94C1004C
:100030000C94C1000C94C1000C94C1000C94C1003C
:100040000C947A030C94C1000C9448030C94220382
:100050000C94C1000C94C1000C94C1000C94C1001C
:100060000C94C1000C94C1000C94C4030C94C40300
:100070000C94C4030C94C4030C94C4030C94C403E4
:100080000C94C4030C94C4030C94C4030C94C403D4
:100090000C94C4030C94C4030C94C4030C94C403C4
:1000A0000C94C4030C94C4030C94C4030C94C403B4
:1000B0000C94C40369026C025F0263028D028D021C
:1000C000700274027A027E028D02840288020000AD
:1000D0000000240027002A002D00090C0A08000255
:1000E0000100000304070000000000000000000001
:1000F00000000102040810204080010204081020C2
:10010000010204081020040801020000000025007C
:1001100028002B002E00040404040404040402023A
:100120000202020203030303030305050505C603D8
:10013000B30711241FBECFEFD8E0DEBFCDBF24E050
:10014000AEE1B1E001C01D92AC36B207E1F711E0BB
:10015000A0E0B1E0E2E6F2E102C005900D92AE311E
:10016000B107D9F710E0C8E9D0E004C02197FE013B
:100170000E94E507C739D107C9F70E9465040C94AE
:1001800024090C9400008F929F92AF92BF92CF925D
:10019000DF92EF92FF924B01AA24BB24E82DC52EDB
:1001A000D62EE72EFF24FC2D342F20915A04222333
:1001B00061F0829E40011124E92DC29E600111244C
:1001C000FD2D429FD00111243B2FF0906004E09060
:1001D0005D04A0915B04B0915C04FE1008C0AC010A
:1001E000440F551F840F951F8A0F9B1F14C0880F43
:1001F000991F880F991F8A0F9B1F472F5527662726
:100200007727DC01AF0DB11D222321F0429FA00111
:100210001124452F4C9320915D04DC01A20FB11DE8
:10022000EC9320915E04DC01A20FB11DFC932091A0
:100230005F04FC01E20FF11D3083FF90EF90DF902F
:10024000CF90BF90AF909F908F900895CF92DF9204
:10025000EF92FF920F931F93CF93DF936C017A017C
:100260008B01C0E0D0E0CE15DF0589F0D8016D919B
:100270008D01D601ED91FC910190F081E02DC60138
:100280000995892B11F47E0102C02196ECCFC7019C
:10029000DF91CF911F910F91FF90EF90DF90CF9062
:1002A0000895089580E090E00895FC01538D448DF9
:1002B000252F30E0842F90E0821B930B541718F009
:1002C00081589F4F089501970895FC01918D828D6B
:1002D000981761F0828DDF01A80FB11D5D968C919A
:1002E000928D9F5F9F77928F90E008958FEF9FEFA1
:1002F0000895FC01918D828D981731F0828DE80F61
:10030000F11D858D90E008958FEF9FEF0895FC011A
:10031000918D228D892F90E080589F4F821B9109EB
:100320008F779927089586E393E00E94870121E063
:10033000892B09F420E0822F0895FC01848DDF01D0
:10034000A80FB11DA356BF4F2C91848D90E001964C
:100350008F779927848FA689B7892C93A089B18933
:100360008C9180648C93938D848D981306C0028841
:10037000F389E02D80818F7D80830895EF92FF9235
:100380000F931F93CF93DF93EC0181E0888F9B8DB8
:100390008C8D981305C0E889F989808185FD24C07A
:1003A000F62E0B8D10E00F5F1F4F0F771127E02EF9
:1003B0008C8DE8120CC00FB607FCFACFE889F989DA
:1003C000808185FFF5CFCE010E949D01F1CF8B8DFD
:1003D000FE01E80FF11DE356FF4FF0820B8FEA8913
:1003E000FB898081806207C0EE89FF896083E8898C
:1003F000F98980818064808381E090E0DF91CF91F2
:100400001F910F91FF90EF900895CF93DF93EC0130
:10041000888D8823C9F0EA89FB89808185FD05C024
:10042000A889B9898C9186FD0FC00FB607FCF5CF5E
:10043000808185FFF2CFA889B9898C9185FFEDCFA6
:10044000CE010E949D01E7CFDF91CF91089580E01A
:1004500090E0892B21F00E94930181110DC080E072
:1004600090E0892B71F080E090E0892B51F00E94A0
:100470000000811104C008950E940000F0CF0C9488
:1004800000000895362F90E0FC01E652FF4F4491A2
:10049000FC01EE50FF4F2491FC01EA5EFE4F849177
:1004A000882309F44DC04423C1F150E0FA0131978B
:1004B000ED30F10590F5E65AFF4F0C94E507909169
:1004C00080009F7703C0909180009F7D9093800073
:1004D00024C094B59F7702C094B59F7D94BD1DC084
:1004E0009091B0009F7703C09091B0009F7D909352
:1004F000B00013C0909190009F7703C0909190003E
:100500009F7D9093900009C09091A0009F7703C0B9
:100510009091A0009F7D9093A000E82FF0E0EE0F57
:10052000FF1FE65FFE4FA591B4918FB7F894EC9151
:10053000311103C020952E2301C02E2B2C938FBF89
:100540000895CF93DF9390E0FC01EE50FF4F24918C
:10055000FC01EA5EFE4F8491882361F190E0880FF0
:10056000991FFC01E253FF4FC591D491FC01E65F56
:10057000FE4FA591B491611109C09FB7F89488818D
:10058000209582238883EC912E230BC0623061F486
:100590009FB7F8943881822F809583238883EC91CC
:1005A0002E2B2C939FBF06C08FB7F894E8812E2B7B
:1005B00028838FBFDF91CF9108953FB7F894809142
:1005C000230190912401A0912501B091260126B527
:1005D000A89B05C02F3F19F00196A11DB11D3FBF7B
:1005E000BA2FA92F982F8827820F911DA11DB11D09
:1005F000BC01CD0142E0660F771F881F991F4A9505
:10060000D1F708952FB7F89460911F0170912001E0
:1006100080912101909122012FBF0895009769F0E8
:10062000FC0101900020E9F73197AF01481B590BFD
:10063000BC0186E393E00C94260180E090E00895ED
:100640000E9418091F920F920FB60F9211242F9338
:100650003F934F935F936F937F938F939F93AF934A
:10066000BF93EF93FF9386E393E00E949D01FF9178
:10067000EF91BF91AF919F918F917F916F915F911A
:100680004F913F912F910F900FBE0F901F90189593
:100690001F920F920FB60F9211242F938F939F9357
:1006A000EF93FF93E0914603F09147038081E0913F
:1006B0004C03F0914D0382FD12C0908180914F0355
:1006C0008F5F8F7720915003821751F0E0914F0395
:1006D000F0E0EA5CFC4F958F80934F0301C080816E
:1006E000FF91EF919F918F912F910F900FBE0F90DF
:1006F0001F9018951F920F920FB60F9211242F93EF
:100700003F938F939F93AF93BF9380911F019091DD
:100710002001A0912101B091220130911E0123E01E
:10072000230F2D3720F40196A11DB11D05C026E829
:10073000230F0296A11DB11D20931E0180931F015E
:1007400090932001A0932101B09322018091230175
:1007500090912401A0912501B09126010196A11D3F
:10076000B11D8093230190932401A0932501B093A0
:100770002601BF91AF919F918F913F912F910F9043
:100780000FBE0F901F9018950C94C1001092390362
:100790001092380388EE93E0A0E0B0E080933A0333
:1007A00090933B03A0933C03B0933D038BE091E017
:1007B000909337038093360385EC90E09093430346
:1007C0008093420384EC90E090934503809344032C
:1007D00080EC90E0909347038093460381EC90E097
:1007E000909349038093480382EC90E090934B03ED
:1007F00080934A0386EC90E090934D0380934C03E2
:1008000010924F0310925003109251031092520312
:100810001092540410925A041092610410926204CF
:10082000109263041092640481E0809360048093CA
:100830005D0410925E0492E090935F0480935304F1
:1008400088E490E090935804809357040E94EB074B
:1008500090935C0480935B04009761F028E4FC01B2
:1008600011922A95E9F788E190E0909356048093DD
:10087000550408C010925804109257041092560460
:100880001092550486E08093590480915404882383
:1008900041F061E086E00E94A10260E086E00E94F3
:1008A0004202ECE1F1E0E491F0E0EE0FFF1FE65FC1
:1008B000FE4F859194919093660480936504E8EFD0
:1008C000F0E0E491E09367040895CF93DF93CDB710
:1008D000DEB7AA970FB6F894DEBF0FBECDBF7894EF
:1008E00084B5826084BD84B5816084BD85B5826035
:1008F00085BD85B5816085BD80916E0081608093E6
:100900006E0010928100809181008260809381004E
:10091000809181008160809381008091800081605E
:10092000809380008091B10084608093B1008091B9
:10093000B00081608093B0008091910082608093CC
:10094000910080919100816080939100809190004E
:100950008160809390008091A10082608093A100CB
:100960008091A10081608093A1008091A0008160AE
:100970008093A00080917A00846080937A008091B7
:100980007A00826080937A0080917A0081608093FF
:100990007A0080917A00806880937A001092C1007A
:1009A00061E08CE00E94A10261E08BE00E94A10264
:1009B00061E08AE00E94A10261E089E00E94A10258
:1009C00061E083E00E94A10261E084E00E94A10254
:1009D000E0914603F091470382E08083E091420377
:1009E000F09143031082E0914403F091450380E1CC
:1009F000808310924E03E0914A03F0914B0386E00E
:100A00008083E0914803F091490380818061808375
:100A1000E0914803F0914903808188608083E091F0
:100A20004803F0914903808180688083E091480306
:100A3000F091490380818F7D80838091590487FDE7
:100A400008C061E00E94A10260E0809159040E9408
:100A5000420281E08093540460E08CE00E944202F4
:100A600011E03AE0432E512C612C712C08E0222435
:100A70002394312C86E393E00E948701892B09F0AF
:100A80001AC21093000183E3E82E81E0F82EF701EB
:100A9000219131917F014901330FAA08BB08B7FEAC
:100AA00026C0E0913603F09137030190F081E02DEC
:100AB0006DE286E393E0099522273327A9012819DF
:100AC00039094A095B0919A2CE0181966C01CA0154
:100AD000B901A30192010E94C307605DF601629310
:100AE0006F01211531054105510589F715C0A50193
:100AF000940119A2CE0181966C01CA01B901A3012A
:100B000092010E94C307605DF60162936F01211597
:100B100031054105510589F7C6010E940E0389E19F
:100B200091E00E940E03F3E5EF16F1E0FF0609F0F5
:100B3000AECF8BE191E00E940E031092340310922D
:100B40003303E0903B01F0903C01809131019091A2
:100B50003201E816F90609F020C1E114F10409F4A4
:100B60001CC18091280181114DC0C12CD12C2EE7D0
:100B7000E20EF11C8091550490915604EFE7EE16B9
:100B8000F10440F0C816D90678F440E050E06FEF69
:100B900070E007C0C816D90638F440E050E06CE3B6
:100BA00070E0C6010E94C300FFEFCF1ADF0A28E100
:100BB000C216D104F9F68FE7E816F10430F061E0CF
:100BC00083E00E94420260E005C060E083E00E9492
:100BD000420261E084E00E944202E09029016E2D11
:100BE0008CE00E944202F09027016F2D8BE00E9462
:100BF00042026E2D61278AE00E9442026F2D61271A
:100C000089E022C0409157045091580460E070E0A0
:100C100080915B0490915C040E941D0960E08CE06F
:100C20000E94420260E08BE00E94420261E08AE0A2
:100C30000E94420261E089E00E94420260E083E09B
:100C40000E94420261E084E00E94420280915B04C3
:100C500090915C04892B09F4A0C00E94DD02C09031
:100C60006104D0906204E0906304F0906404DC01BD
:100C7000CB018C199D09AE09BF098C329140A105A9
:100C8000B10558F3F89480915704909158049BA3B0
:100C90008AA3E0915B04F0915C04DF0111968081EE
:100CA0008AA790915304E0916504F09166048091C5
:100CB0006704992309F42DC09081982B99A79081FE
:100CC0008095892388A788A58DA30CA359A568A51D
:100CD0004AA53CA12DA18AA19BA1508347FD252FA8
:100CE0003A952083262F39F0441F00C0000060830E
:100CF000000000C0F2CF38E04D9160830000019702
:100D000061F7F0936604E09365044AA73CA32DA322
:100D100037C09081982B99A790818095892388A7C7
:100D200088A58FA30EA359A568A54AA53EA12FA10A
:100D30008AA19BA1508347FD252F00C000C02083BE
:100D400000C000C000C000C000C060830000262FAB
:100D50003A9541F0441F000000C000C000C000C030
:100D600000C0E8CF38E04D9100C0608300C001971B
:100D700009F7F0936604E09365044AA73EA32FA306
:100D80009BA38AA378940E94DD0260936104709310
:100D90006204809363049093640480913B0190917A
:100DA0003C019C012150310923313105C8F5809166
:100DB000300181113DC0E0902E01F0902F01E1142F
:100DC000F10479F40E94020360932A0170932B01CD
:100DD00080932C0190932D0130922F0120922E01AF
:100DE0001CC00E94020320912A0130912B014091E6
:100DF0002C0150912D01DC01CB01821B930BA40B24
:100E0000B50B803B9440A105B10538F42FEFE21AF1
:100E1000F20AF0922F01E0922E011093300108C0E7
:100E20008135910528F080913001811110923001B7
:100E30000E940203C0902A01D0902B01E0902C0167
:100E4000F0902D01DC01CB018C199D09AE09BF0981
:100E5000803B9440A105B10518F180912E0190913D
:100E60002F018330910531F48091290181278093EE
:100E7000290110C08430910531F480912801812727
:100E80008093280107C0059729F4809127018127C5
:100E90008093270110922F0110922E0110923001A1
:100EA00080913B0190913C019093320180933101FC
:100EB0000E942702DFCD0E94020360933E037093DD
:100EC0003F038093400390934103E0913603F091F8
:100ED00037030284F385E02D86E393E0099597FDBF
:100EE00003C0809335031DC00E940203C0903E03DF
:100EF000D0903F03E0904003F0904103DC01CB0130
:100F00008C199D09AE09BF09C0903A03D0903B03EC
:100F1000E0903C03F0903D038C159D05AE05BF05A8
:100F2000A0F28091330390913403009731F4209123
:100F30003503223011F0109200012091000122238C
:100F400061F0FC01EE0FFF1FED5CFE4F20913503B9
:100F5000022E000C330B31832083019690933403CF
:100F60008093330387CD80915B0490915C0400975C
:100F700011F00E9480088091590487FD03C060E051
:100F80000C94A1020895A1E21A2EAA1BBB1BFD011D
:100F90000DC0AA1FBB1FEE1FFF1FA217B307E40758
:100FA000F50720F0A21BB30BE40BF50B661F771FB0
:100FB000881F991F1A9469F7609570958095909590
:100FC0009B01AC01BD01CF010895EE0FFF1F0590FD
:100FD000F491E02D0994CF93DF938230910510F4C2
:100FE00082E090E0E0916A04F0916B0420E030E050
:100FF000C0E0D0E0309711F1408151814817590786
:10100000C0F04817590761F482819381209719F045
:101010009B838A832BC090936B0480936A0426C0C1
:101020002115310519F04217530718F49A01BE0132
:10103000DF01EF010280F381E02DDCCF21153105C6
:1010400009F1281B390B2430310590F412968D914B
:101050009C9113976115710521F0FB0193838283A5
:1010600004C090936B0480936A04FD01329644C0DF
:10107000FD01E20FF31F81939193225031092D93CB
:101080003C933AC02091680430916904232B41F4C9
:101090002091030130910401309369042093680486
:1010A00020910101309102012115310541F42DB744
:1010B0003EB74091050150910601241B350BE0918C
:1010C0006804F0916904E217F307A0F42E1B3F0BAC
:1010D0002817390778F0AC014E5F5F4F24173507AA
:1010E00048F04E0F5F1F509369044093680481934A
:1010F000919302C0E0E0F0E0CF01DF91CF9108953D
:101100000F931F93CF93DF93009709F48CC0FC01DA
:1011100032971382128200916A0410916B040115B8
:10112000110581F420813181820F931F2091680481
:10113000309169042817390779F5F0936904E09331
:10114000680471C0D80140E050E0AE17BF0750F40A
:1011500012962D913C911397AD012115310509F19E
:10116000D901F3CF9D01DA0133832283608171813C
:10117000860F971F8217930769F4EC012881398144
:10118000260F371F2E5F3F4F318320838A819B813B
:1011900093838283452B29F4F0936B04E0936A04D4
:1011A00042C01396FC93EE931297ED014991599129
:1011B0009E01240F351FE217F30771F4808191819E
:1011C000840F951F029611969C938E938281938132
:1011D00013969C938E931297E0E0F0E0D80112965C
:1011E0008D919C911397009719F0F8018C01F6CF1F
:1011F0008D919C9198012E5F3F4F820F931F2091FC
:101200006804309169042817390769F4309729F484
:1012100010926B0410926A0402C01382128210931F
:10122000690400936804DF91CF911F910F91089595
:1012300081E090E0F8940C942409DC0101C06D93E6
:1012400041505040E0F7089510E0C8E9D0E004C0F4
:10125000FE010E94E5072196C939D107C9F7F89424
:02126000FFCFBE
:101262000100006C04800000000000BE0126015550
:0E12720001050287016501790120000D0A00C7
:00000001FF
